:020000041000EA
:1000000093000000068186810682868206838683AD
:100010000684868406858685068686860687868784
:1000200017050000130505061365350073105530DC
:1000300017150010130505AD73107530174100102A
:10004000130141FC73100134EF00F05B01A01300B9
:100050000000130000001300000013000000130054
:100060000000130000001300000013000000130044
:100070000000130000001300000013000000010046
:100080007375043001A073002030000000000000F0
:100090000000000000000000000000000000000060
:1000A0000000000000000000000000000000000050
:1000B0000000000081471303700C63C3D7008280E7
:1000C00003C70500E36DE3FEB302F60083C202003E
:1000D0002A9785072300570003C7050093F7F70FFA
:1000E00005072380E500D1BFAA95371700416313A8
:1000F000B50082808357470193F70702E5DF834706
:10010000050005052310F700DDB71301C1EE2AC075
:1001100086DFA2DDA6DB48097CDD6CD530D974D939
:1001200038DD1C023ECAA309010002C20247034790
:10013000070021E78345310168107D37FE506E547A
:10014000DE54130141118280850602473304D70033
:10015000034704006303C71C65FB91CE0246930569
:10016000310168103EC63AC4B137224793065002A7
:10017000B2476306D71A22C055BF81461306500204
:10018000E9B71307D7F91377F70F5D466367E61CE6
:10019000374600100A07130646263297184302878F
:1001A00093068005631BD71A938447009C433AC289
:1001B000014641473ECC8545B3B6E5023385E502AD
:1001C000B336D00063E4A70063890610814601CEF0
:1001D000130500037D146398A3009306D002230E39
:1001E000D100B28601461305E4FFB5421303C101F5
:1001F00063EEA2001305F4FFB302D3002380720064
:100200007D15850265FD36949306F4FF11CA1386A9
:10021000460E08082A961305D0022304A6F2850686
:1002200037460010930346FC37460010130480073E
:10023000130606FBD5E51A8635A0130600036314E2
:10024000C70011E0BA8329463306C402130606FD2F
:100250003304C7000246E9A8938447009C438546BF
:1002600030083ECC930531016810A93581A89384EC
:1002700047009C4363DB0704B307F040054629476A
:1002800015BF9043938447008146B307D60083C7C8
:1002900007009DE793053101681036C4213DA24651
:1002A00063FE8600158C3746001085461306C6FA95
:1002B0009305310168107D14F53B75F4A687BDB533
:1002C0008506E1B7938447009C4301464DBF938464
:1002D0004700130780079C43D9BD7D14AA85E9BD5B
:1002E00033D5B70292423375E502639D82003295A1
:1002F00003450500B302D30085062380A200B3D5D1
:10030000E5020DBF1E95EDB73EC48546930531014C
:1003100068104D33A247BE8455B7E39106E4130637
:1003200014009303000201449306A00793052006DE
:10033000130716003AC00347060063E0E602E3E253
:10034000E5E413059003E36DE5E41305F002E366CD
:10035000E5EE93065002E309D7FA374600103EC493
:100360009546130686FD5DB737450010411113050C
:1003700005FE22C426C206C6B2843684793381477C
:1003800063ED8700374500101305C5FFBD3BB24044
:10039000228522449244410182803387F4008345C0
:1003A000070037450010130545FF3EC0B93B8247A3
:1003B000850793F7F70FE9B7B727002093F5F50FF7
:1003C000938787522380B70283C507023745001001
:1003D000130505001DBB611122C006C22A8491C508
:1003E00037450010130585010D33B72700208355CD
:1003F000040023A687540244924037450010130599
:100400008503210119B3835505003745001071118B
:100410001305450606C0D539824001451101828089
:1004200083550500374500101305C508F9B903C603
:10043000150083C50500374500101305850BF1B184
:100440001301C1FD22CE2E84B745001026CC2AC24E
:10045000B2849385052E1D46080806D036C63AC4D8
:1004600097C000F0E7804055374500101305050E92
:1004700069392247B24612451D4632C01C082686FD
:10048000A285977000F0E780403082507244E244C9
:100490001301410282806111ED473EC0B727002061
:1004A0009387875C06C2977000F0E780002E924029
:1004B00021018280B7070203130141EE93870710E1
:1004C0003EC8B707060093874750232A8110232888
:1004D00091102AC22E84B28481451306800F280809
:1004E00036C43AC63ECA232C111097C000F0E780EC
:1004F000204E01471C089306F00F3386E7002300C7
:10050000E6000507E31BD7FE374500101305050E6F
:10051000ED3E51473AC0A246324712451C08268696
:10052000A285977000F0E780402683208111032484
:100530004111832401111301C1118280130181FD36
:1005400022D0372400201304845203578409056500
:100550009307F5FFBA97B3C7E70206D226CE36C493
:100560008346060032C2BA853A86FD176399F600C3
:100570003366E50263010610131706014183B38653
:10058000B60292470325C4083ACA85073EC083577E
:10059000C409B207AA97B384D70013830410374560
:1005A0000010B3069700137303F0A6851305450FDB
:1005B00036C81AC6993E3243C2465247637ED30CB0
:1005C0009392040142031353030193D20201B30631
:1005D0005340824513960601418226853ACC16CABD
:1005E0001AC832C697100010E78020BC3246024776
:1005F0004243D242B306C7006247B3079600B384B2
:100600006240BA94C204C1803E853387F400098FEA
:100610004207B385F64041831306F00FAA95636E37
:10062000E60413D58400130700F03307E502338690
:10063000E4004206418209CA2205B385A6003E9520
:1006400097100010E78060B69247224583C70700E5
:1006500013D737003A9413F777008547B397E7002D
:100660000347040AD98F2300F40A92500254F2443B
:100670001301810282803A8619B71306001036C82A
:100680003EC62AC097100010E78020B20245C2463D
:10069000B2471305051095BF82453A8626854DB7AA
:1006A0003745001071111305851006C0B93CEF00E5
:1006B0001070824011016F10601219C5AA8537456C
:1006C00000101305C51291B4011106CE22CC97700B
:1006D00000F0E7806004374500101305C514374467
:1006E000001025341304042E13058400EF00F0716C
:1006F00013050401EF00707137150020130505A0E4
:10070000EF009078972000F0E780E0F2B7C7E2D8DA
:10071000938747333EC08967938757050A8523121D
:10072000F100EF00B063130584018945EF007069A3
:100730008D4513058402EF00F069B707A000938789
:10074000070A2800231A01003EC49D47A30AF100AE
:1007500002C602C8230B0100EF003061EF003065D4
:1007600037450010130545164D32F24062440561CD
:1007700082801301C1FD22CE26CC2A84AE8461463C
:1007800081450A8506D097C000F0E7806024B7470E
:1007900000109387C7353EC28A85C947228526C87F
:1007A000231AF100977000F0E780A05AB7270020C5
:1007B0009387875203D7070C825072440507239012
:1007C000E70CE2441301410282801301C1FC22D6EE
:1007D00026D406D8834506002AC0374500101305E5
:1007E0008518B28436C201440D3292476367F40221
:1007F000374500101305C519093A03C70400994687
:100800007D171377F70F63ECE604B74600100A076D
:100810009386462C369718430287B386840083C597
:1008200006003745001013058519C530130714005D
:100830001374F70F5DBF03C714003724002013049F
:1008400084529385240041461305940619E3130549
:10085000940297C000F0E7802016230404020345A9
:100860004100C2503254A254130141038280372701
:10087000002013048752034684028546368575F2AC
:1008800082472304D402B7F601102326D408138527
:100890005400232EF40AEF3080662328A40883C571
:1008A000A40003C69400AA86A205D18D231CB40817
:1008B000AA8485C037F501103695058D2EC636C43D
:1008C00097000010E780C0710566A246B2456360DC
:1008D0009604374500101305051AEFF01F83032611
:1008E00004098325C408374500101305051CEFF0E3
:1008F000DF813745001081451305851DEFF0FF802E
:100900008D4702450C082318F100A53589BF918C4D
:100910004DB783C7240003C7140037250020A20762
:1009200013058552D98F231EF5086D4681451305A1
:10093000050A97C000F0E780A00915B7B727002087
:1009400083A7C75B05472382E70099475DBF03C7BD
:100950001400372400201304845293761700E38E8A
:1009600006EE0987058B3ACA370700103ACC37F7ED
:1009700001103ACE371700103AD003270409B7F612
:10098000BDAC9386F6FA37D5031036C83AD2970035
:100990000010E780E06461460C0837D5031097101B
:1009A0000010E780808083C71400898BE38707EA03
:1009B000B7070040054798C77300501079BD730012
:1009C000203073002030730020307300203073001B
:1009D000203073002030730020307300203073000B
:1009E0002030730020302A8781473E858507B30673
:1009F000F70083C6F6FFF5FA8280611106C222C0B5
:100A00002A8497C000F0E780E0F9AA852285EFF0FC
:100A1000AFED37450010130545258545EFF0CFECC8
:100A200092400244014521018280B707004003C77C
:100A30000707136727002388E70603A7070B0D079F
:100A400083A6070BE3EEE6FE03C70707B7060040E1
:100A50001377D70F2388E70683A7070B8D0703A714
:100A6000060BE36EF7FE8280397106DE22DC26DAA1
:100A700037070140930780022304F720A547A3040A
:100A8000F720930600403707004014C702C0024712
:100A900063D8E71EB706004023A40600DC520947CE
:100AA000A9838D8B6392E71E3777DC02130707C09B
:100AB000DC522146B717004183C6C700C1653745E0
:100AC000001093E606F82386D700F1669386062089
:100AD0003357D702B71680E0A1051305051F8144DF
:100AE00011831377F70F2380E70023820700238009
:100AF000070C03C7C7001377F7072386E70003C770
:100B0000C7001377770F2386E70003C7C700136773
:100B100037002386E70003C7C7001377B70F238684
:100B2000E70003C74700799B2382E70003C747001C
:100B3000759B2382E70003C7870013671700238490
:100B4000E70003C787001377F703136707042384BD
:100B5000E700B70780E0DC431307F00FD583BD8BB8
:100B60001D8E83C736063317C7001347F7FFF98F6B
:100B70000D473317C700D98F93F7F70FA381F606F8
:100B800083C7160693E71700A380F606EFF0EFD7AA
:100B9000B70525203745001093857562130545205C
:100BA000EFF0AFD63745001013054521EFF0EFD534
:100BB000EF00700837150020130585A2EF00101A0A
:100BC000372500101305C501EF1020503715002000
:100BD0001305E54C97C000F0E78080A9EF00F02BEB
:100BE000370500101305A56B979000F0E78020955E
:100BF000EF005047B70700401307800D23A0E71010
:100C0000EF00F03337240020EF00903413048452B7
:100C1000B707004283A647100327440C8327840CA0
:100C20000326C40C63E7E6063387E640BA9733B77A
:100C3000E7002322D40C8346840232972324F40C49
:100C40002326E40CC9E219E363EA9704B3869740CC
:100C500033B6D7006318C70037470F0013070724C0
:100C6000637ED704BE848327040D37450010A68514
:100C70008507130545222328F40CEFF00FC93DA882
:100C8000024705073AC021B537376E0113070760E1
:100C900005B59385F6FF3387E54049BF1387F7FF16
:100CA00033069740B336F0003337C700E39CE6FACB
:100CB00037470F0013070724E366C7FA8327440D5D
:100CC0008507232AF40C0327040D89476314F700D2
:100CD000EF00D030485019DD4C00976000F0E780FD
:100CE000E052035781019307F03163EBE702EF0015
:100CF000B02F8357440DE39F07EE48501306003290
:100D0000B2851307803E8146EF00F00DAA85E3030C
:100D100005EE3745001013054523EFF00FBFD9BD91
:100D2000EF00D02BC1BDB70700401307800F23A0F1
:100D3000E71001A0370780E05C43D183F98B2300E3
:100D4000F7000147370580E08565854613060003F7
:100D500093172700AA97AE972380D700A380070098
:100D60002381D7000507E315C7FE8280711106C0F5
:100D7000374700101307C762B74700109387876390
:100D8000BA863E856365F70437470010130787630B
:100D9000B7470010938707646370F706BA86B745B4
:100DA00000109385F563998DE199A105BA9589A005
:100DB00013962700984232970C43D84232970CC3BF
:100DC00085079846E3E6E7FEB106E3FFA6FA9846F4
:100DD000814779FFD5BF9842139627003297232089
:100DE00007008507D842E3E8E7FEA1066386B60060
:100DF000D84281476DF3D5BF97C000F0E780E0A4EB
:100E0000824011018280B70700409843856793872D
:100E100017106303F7008280411106C622C426C260
:100E2000B137093F3704084085473CC837070042BF
:100E30008567938717702320F71051208D21EF10BD
:100E40006076B7040040DC50B70710009387074076
:100E5000DCD0372700421C43F59B1CC383270411B9
:100E6000216713070780D98F2328F41037D5FC009A
:100E70001305F5BF97000010E780603F8347041219
:100E800093E747002300F412930700409CC402C07C
:100E90000247A54763C9E7003E87824785073EC0F2
:100EA0008247E35CF7FEB707004023A40700F3671F
:100EB00004305D3EB2402244924441018280B746F4
:100EC000801F138706F3B7270020938787629386D6
:100ED00086F78323070083224700032387004847C0
:100EE0000C4B504B23A0770023A2570023A467008C
:100EF000C8C78CCBD0CB6107E107E31CD7FCB72771
:100F0000002003C787629307F00F631DF7003727A0
:100F100000201307876283470700C19B93E7A70060
:100F20002300F700B727002003C7A7629307F00F3D
:100F3000630FF710B727002003D7C762C167FD17FB
:100F40006303F712B727002003D7E762C167FD17D5
:100F50006302F712B727002003D70763C167FD17A5
:100F60006301F712B727002003A74763FD57630704
:100F7000F712B727002003A78763FD576302F71412
:100F8000B727002003A7C763FD57630DF714B727E2
:100F9000002003A70764FD576308F716B727002052
:100FA00003A74764FD576303F718B727002003A77B
:100FB0008764FD57630EF718B727002003A7C7649F
:100FC000FD576309F71AB727002003A70765FD57E8
:100FD0006306F71CB727002003D74765C167FD17D5
:100FE0006300F71EB727002003D78765C167FD1789
:100FF0006303F71EB727002003D7A765C167FD1756
:101000006306F71EB727002003D7C765C167FD1722
:101010006309F71EB727002003A70766FD57630F74
:10102000F71EB727002003A74766FD576304F72084
:10103000B727002003A78766FD57630CF720B72763
:10104000002003A7C766FD576309F7228280372770
:1010500000201307876283472700C19B93E737006F
:101060002301F700C1BDB72700201307D0F823865E
:10107000E762C9BDB7270020130770FB2387E7622B
:10108000D1BD37270020130787628357870093F766
:1010900007C093E707142314F700E9B537270020AA
:1010A000130787625C47FD76F58F93E78725B706C0
:1010B00001FCFD16F58FB706AB02D58F5CC755BD99
:1010C00037270020130787621C4BFD76F58F93E7C7
:1010D000870CB70601FCFD16F58FB706E400D58F27
:1010E0001CCB79BD37270020130787625C4BFD7648
:1010F000F58F93E7074BB70601FCFD16F58FB70692
:10110000AB02D58F5CCB61B5372700201307876210
:101110001C4FFD76F58F93E70719B70601FCFD1606
:10112000F58FB706E400D58F1CCF8DBD3727002083
:10113000130787625C4FFD76F58F93E78770B706DC
:1011400001FCFD16F58FB706AB02D58F5CCFB1BDA4
:1011500037270020130787621C53FD76F58F93E72E
:101160008725B70601FCFD16F58FB706E400D58F7D
:101170001CD399B537270020130787625C53FD768F
:10118000F58F856693860696D58FB70601FCFD160A
:10119000F58FB706AB02D58F5CD335B53727002066
:1011A000130787621C57FD76F58F93E70732B70662
:1011B00001FCFD16F58FB706E400D58F1CD719BDCD
:1011C000B72700209387876203D7C7021367F73FCB
:1011D0002396E70201BDB72700209387876203D7D4
:1011E0000703FD76758F2398E70229B5B7270020FE
:1011F0009387876203D72703FD76758F2399E702CC
:1012000011B5372700201307876283574703FD7600
:10121000F58F93E7C740231AF702EDBB372700206D
:10122000130787621C5FB7060080F58F93E75703AB
:101230001CDFC5BB37270020130787625C5FB7063A
:101240000080F58FB7B6030093860698D58F5CDFD4
:10125000C5B337270020130787623C43FD76F58F1F
:101260008566938686BBD58FB70601FCFD16F58F84
:10127000B7065503D58F3CC3D9B3372700201307D2
:1012800087627C43FD76F58F93E7077DB70601FC07
:10129000FD16F58FB7063902D58F7CC38280B7075C
:1012A000084003A647103747FCFF7D17798E372784
:1012B00000201307876283562700BD8ABA06D18EA5
:1012C00023A2D71003A68710C1769386F60F758EDA
:1012D00083464700A206D18E23A4D71003A6C710C9
:1012E000E1769386F607758E834667009E06D18E5B
:1012F00023A6D71003A60711B70604FFFD16758EA7
:10130000145FCA06D18E23A8D71037260042144690
:10131000B7070088FD17FD8E1C43BD8BEE07D58FE8
:101320001CC68280B707004003A5070B8280B70761
:10133000004023AAA70A8280B707004003A5470BF5
:10134000828099C9370700408357870BC207C18342
:101350005D8D231CA70A8280370700408357870BC7
:10136000C207C1831345F5FF7D8D231CA70A828028
:10137000B707004083D7870B133515007D8D1335D4
:1013800015008280370700408357870BC207C1834F
:10139000C98F231CF70A82800D8D8280511106C4EB
:1013A00022C2B727002083A7076795CFC0439D3F80
:1013B000290563708502B307A44063D307002A841C
:1013C00085450545BD3F22859D37A2401244310128
:1013D000828033078540B707008093C7E7FFE3E1CA
:1013E000E7FE2A84F1BF81450545A13FF9BF5111B0
:1013F00006C422C273740430B727002083A707678E
:1014000095C36303F5023E879C4391C7E31DF5FE38
:101410001C411CC311A06DDD73100430A2401244A6
:101420003101828075F9AA879843B727002023A845
:10143000E766AD37D5B7511106C422C226C0B7271B
:1014400000209387076723A0070023A2070023A497
:10145000070023A6070023A8070023AA070023AC40
:10146000070023AE0700A14437040040154597004C
:101470000010E78060EA1305C00397B000F0E78032
:10148000C04585472308F40697000010E78040EB2D
:101490003C58F99B3CD8EFF04FD91305803E97B0EC
:1014A00000F0E7808043FD14F1F0B7270020938718
:1014B000076703D78700420741832393E700A240D1
:1014C0001244824431018280511106C422C226C0D6
:1014D00013050010713D11E5A24012448244310110
:1014E000828013050010793D05A04844829729A801
:1014F000B3049540B707008093C7E7FFE3EE97FC7E
:101500002285F5351C44F5F3B7270020938707673C
:10151000804379D044403935E37C95FC898CE3C124
:1015200004FE5DBFB727002083A7076795C7511149
:1015300006C422C211352A84F533AA852285A93D25
:101540002A84EF10B0273335A40013451500050594
:10155000A2401244310182800D458280511106C49F
:10156000EF001033A24031018280411106C683434F
:10157000250083453500A20583420500034315007D
:1015800022038347E5003EC08347D500130765006B
:101590008346550003464500B3E5750033655300A7
:1015A000974000F0E7806008B2404101828051110D
:1015B00006C40545974000F0E7802013A2403101A2
:1015C0008280511106C4974000F0E780C00CA24011
:1015D00031018280511106C4974000F0E780400E2F
:1015E000A24031018280311106C82310B1002311BD
:1015F000C1002312D1002313E1008A85976000F017
:10160000E780C0A1C24051018280B727002003C3F8
:10161000076B9D4763E667061A8663566002B72725
:10162000002083A70769630FF504B727002093877D
:101630000769014705076308C70091079443E39BC7
:10164000A6FE7D558280511106C4AA87130513009A
:101650001375F50F372700202308A76AB725002048
:10166000138705690A033A932320F30093850569DC
:10167000976000F0E780A00C0145A2403101828014
:10168000795582807D558280511106C4975000F0B3
:10169000E780806DA24031018280511106C4B707F6
:1016A00080E0DC43D583BD8BA1469D8E371780E05B
:1016B0008347770913F6F70F9307F00FB397D70017
:1016C00093C7F7FFF18F0D46B316D600D58F93F76A
:1016D000F70FA30BF7088347570993F7F70F93E723
:1016E0001700A30AF708EF005017B7070040D853B8
:1016F0009357870093F6270089C68D8B89466385AB
:10170000D700A2403101828011830D8B8D47E31AEF
:10171000F7FE370700208357674B9107231BF74AD3
:1017200037370020835787EF9107231CF7EED1BF8F
:10173000F3270030A18B99E373600430828051114C
:1017400006C4EF101008552FE537A2403101828002
:10175000511106C4014681450D45852AA24031013B
:101760008280411106C622C426C22AC0AE8401442A
:1017700015A80245052702475C4793E707085CC7A1
:10178000B7170020938747BD83C757008A07BA97CA
:10179000984098C30504910431A005049104A14721
:1017A0006309F4029547E306F4FCB717002093871A
:1017B00047BDA29783C707008A070247BA97984098
:1017C00098C39D47E31BF4FC02475C4793F7F7F788
:1017D0005CC7B2402244924441018280B727002076
:1017E0000547A388E76A8280B7270020A388076A95
:1017F0008280B727002003C5176B1375F50F11E121
:101800008280511106C4EF10D0233335A000A240CE
:1018100031018280311106C822C626C4AA842EC294
:1018200093B715009607938707023EC0014429A08D
:101830000504E147630AF400B3D78400858BEDDB30
:1018400082452285D52BEDB7924789EBB707084033
:1018500084CBC2403244A24451018280B707084081
:10186000C4CBC5BF37370020B73703009387373065
:101870002322F7F637370020B717002093876749F0
:101880002326F7F437370020B71700209387A73BAC
:101890002328F7F437370020B71700209387473EF7
:1018A000232AF7F4B717002029472382E7FCB7174C
:1018B00000207D57A382E7FC37370020B7170020B0
:1018C0009387273E2322F7F48280130141F606CD49
:1018D00022CB26C92A842EC432C6B727002023ACC7
:1018E000076A7370043097000010E780E0CE09E9C2
:1018F00073600430EA405A44CA441301C10982802B
:10190000CD3D7DD597000010E78080B0AA84854743
:10191000E3F0A7FE228539318547E3FBA7FC26C803
:10192000637395002AC8B72700209387476B3EC290
:1019300005AA97000010E780C05F631B05144DBF28
:1019400037150041812BB7170041D84713670708A7
:10195000D8C70247034707000A07BA979C431CC031
:101960008504824785073EC011049947E38AF4FC49
:10197000824783C7070013972700B7170041BA971C
:101980009C431CC09D47E3FD97FC5244A2476393D0
:101990000716B24763940716B70408409307F03F51
:1019A0002392F408B70700019CCCEF10300F83A7F7
:1019B000041161771307F77FF98F216713070780F9
:1019C000D98F23A8F41097000010E780007DB72777
:1019D000002083A5C76B37150041613392479C43B4
:1019E0009443184014C3110491073747001013079C
:1019F0004745E317E4FE3707084083570708C20747
:101A0000C183B726002023ACF66A9307F03F231268
:101A1000F7080147B70580E00546930600039307E2
:101A200007408A07AE972381C7000507E319D7FE51
:101A30008D474247E31EF7EAB727002083A7876B4D
:101A4000E38807EAB7070840DC4FCDEFB72700204F
:101A500023AC076A1305803E97B000F0E780E0E70B
:101A60009247381898C3B7370020A38407F48D47EE
:101A70004247E310F7ECB73700200547A384E7F4AB
:101A8000B707004083A7070BFD17370708405CC363
:101A9000B7270020380823AEE76A92479043B7473C
:101AA000001013840741328793870741944394427F
:101AB00014C391071107B746001093864645E39774
:101AC000D7FEB7170020938707BC13074604138679
:101AD00047019443944214C391071107E39BC7FE47
:101AE000B7170020938747BD3EC03C08854422CAF3
:101AF0003E84A5BD81453E85313B61BD85453E8522
:101B0000113B59BD370700428327071093E70701B0
:101B10002320F710F1BB9357F541FD8BAA973707A8
:101B200000400327070B9587894663F3D700894751
:101B3000BA97B706004003A7060BE36EF7FE828054
:101B4000511106C422C2370400408347040793F7AB
:101B5000F70F93E727002308F40613054006653FB7
:101B60008347040793F7D70F2308F40613054006AD
:101B70005D37A2401244310182803707004083471D
:101B8000070793F7E70F8A06DD8E93F6F60F230813
:101B9000D7061377D5FF8547630AF7008547339546
:101BA000A7002205B395B700C98D39A0B395B7003A
:101BB000A2053395A700C98DC205C181B7070040B2
:101BC000239AB706B0DF8280B707004003C7070734
:101BD0001377F70F9367170019E19377E7FF93F7F0
:101BE000F70F370700402308F7068280511106C41B
:101BF00081466137B1370545C13F3707004083470C
:101C00000707C18BEDDFB7070040E85FA240310155
:101C10008280111106CC22CA26C8B707084003A447
:101C2000871021841374F40F9304F00F02C0B707D8
:101C30000010FD173EC43EC6B757FCFF93870768E8
:101C40003EC22DA882473307F4409357F701BA9755
:101C50008587A2841D8C2AC482476306F40463042A
:101C60009404B706084083A7861041771307F70F3F
:101C70007D8F93178400D98F23A4F61037B6030005
:101C80001306069885450D45953792473E95E34BDB
:101C9000A0FA338784409357F701BA97858722C00B
:101CA0003E942AC655BF32479357F7413D8F1D8F4B
:101CB000A24793D6F741B58F958F63C3E70082445F
:101CC000130580063385A4029167938707513E95DB
:101CD000EF20E018B747001003A6874583A6C74545
:101CE000EF10C05DB747001003A6074683A647461E
:101CF000EF103033EF2040109307F00F63D4A700AC
:101D00001305F00FB707084083A787101307F00FDC
:101D1000635497009304F00F13C7F4FF7D87F98C89
:101D2000A204370700FF1307F70FF98FDD8C9347E5
:101D3000F5FFFD877D8D4205C98CB707084023A4B8
:101D4000971001455135ED3BE2405244C2447101C8
:101D50008280111106CC22CA26C8B707084003D4D6
:101D6000C7101D801374F40F9307F00F3EC0814419
:101D7000B7070010FD173EC43EC6B757FCFF938758
:101D800007683EC281A0330794409357F701BA9782
:101D9000858722C01D8C2AC4630A94048247630786
:101DA000F404B706084083D7C610C207C183617721
:101DB0001307F7077D8F93177400D98FC207C1836C
:101DC0002396F6101306701481450D45053592478C
:101DD0003E95E34AA0FA8247338787409357F7013D
:101DE000BA978587A2843E942AC67DB73247935717
:101DF000F7413D8F1D8FA24793D6F741B58F958F41
:101E000063C3E70026C0B706084083D7C610C207E1
:101E1000C18361771307F7077D8F82479E07D98FAC
:101E2000C207C1832396F6100145793B113BE2407E
:101E30005244C24471018280131735001373870125
:101E40001376C5FFB7060140938706203E961842D9
:101E50009307F00FB397670093C7F7FFF98F13F756
:101E6000F50133176700D98F1CC213171500798B42
:101E700011810A059386060A369514418D47B3975A
:101E8000E70093C7F7FFF58F9581B395E500DD8DEA
:101E90000CC182807C5D858B91C75C49858BFDDBA5
:101EA0001C41CDBF8280B707002009472382E77617
:101EB00037070020B72700209387076C2328F77681
:101EC0008280511106C4373500201307858DB7175E
:101ED000002023ACE782B707002083C7477613961C
:101EE00037001D8E0A0681451305858D97B000F0D9
:101EF000E78000AEA24031018280B707002083C78F
:101F00004776A5CB311106C822C626C4814402C03B
:101F100031A85CC81DA88247138717003AC0F10496
:101F2000B707002083C747766350F704B717002030
:101F300003A4878326941C40F9DF144836C2E1DEEF
:101F40009C421CC85848E386E6FC9245228597408F
:101F500000F0E78040DD61D11C4812471CC318C85F
:101F60005C48D5FB58C845BFC2403244A244510129
:101F700082808280B707002003C647766354C00280
:101F8000B717002083A78783014729A00507F1071A
:101F90006308C7009443FDDA944BEDDA0145828073
:101FA0000545828005458280511106C437350020E1
:101FB00013070591B717002023AEE782B70700206B
:101FC00003C64776930740073306F602814513059B
:101FD000059197B000F0E780A09FA2403101828078
:101FE000511106C4B70700201307F00F239AE74AE0
:101FF000B70700209387C74A0D472380E700238156
:10200000E70015472382E7002383E700898197A033
:1020100000F0E780002AA24031018280511106C4FD
:10202000B70700202D472384E72C3707002085675A
:10203000938747B2231EF72A37070020ED7793874F
:10204000D7BC2313F72C9305005037350020130518
:10205000859F7937A24031018280511106C43745EE
:10206000001013058546977000F0E780E0FAA24063
:1020700031018280828001458280828082808280DC
:102080000145828082800145828001458280828074
:10209000B71700209387C7BD034755002380E7008B
:1020A00003474500A380E700034735002381E7008D
:1020B00003472500A381E700034715002382E700BB
:1020C00003470500A382E7008280511106C422C2A3
:1020D0002A8437070020B71700209387274C232234
:1020E000F73E37070020B7270010938747072324C0
:1020F000F74037070020B727001093876707232C86
:10210000F73E37070020B72700109387A70723263D
:10211000F73E37070020B72700109387C70723280B
:10212000F73E37070020B72700109387E707232AD9
:10213000F73E37070020B7270010938707082320B2
:10214000F74037070020B72700109387470823225E
:10215000F74037070020B727001093876708232E22
:10216000F73E37070020B72700109387A7082324DE
:10217000F73E37070020B72700109387E70823268C
:10218000F740B7170020A3880790B71700202388CF
:102190000790113B113D353337070020B71700205A
:1021A000938707E8232AF74037070020B717002056
:1021B000938787DE2328F740B70780E0DC43D58389
:1021C000BD8BA1469D8E371780E08347F70413F639
:1021D000F70F9307F00FB397D70093C7F7FFF18F6F
:1021E0000D46B316D600D58F93F7F70FA307F70464
:1021F0008347D70493F7F70F93E71700A306F70475
:10220000612A9120E95737070020A30DF76E3707A1
:102210000020230DF76E9307F00637070020231BDD
:10222000F74A37370020231CF7EEB71500209385B7
:10223000C5BD0145970000F0E780002A0294A24046
:10224000124431018280411106C622C426C2D12621
:10225000B707002093870743374700101307474706
:1022600083540700035427008353470083526700B9
:10227000035387000355A7008355C7000356E700A3
:10228000835607012311D1008356270103574701C5
:102290002390970023918700239277002393570080
:1022A000239467002395A7002396B7002397C700C0
:1022B000035621002398C7002399D700239AE700EB
:1022C000B70700209387074223A0070023A2070037
:1022D00023A4070023A6070037070020B7574A00AA
:1022E000A107232EF740B70700420D47D8CF370785
:1022F00000011307B765D8D32147238AE704B7073E
:1023000000209387471B37170020130787DC98C7E7
:1023100037170020130787DAB8CB370700201307D9
:102320004716B7160020938686D814C7B716002024
:10233000938686D634C7B70600209386C60B14DB77
:10234000370700208326474137070020232AD70A72
:10235000B706002037170020130707E823A2E6007E
:10236000371700201307C7BE98D33717002013076D
:10237000C7C298DF371700201307C7C1B8C7B70710
:10238000002003A70741B707002023A6E702B240B9
:102390002244924441018280B70700203747001051
:1023A0001307C748834607002380D74A9387074A05
:1023B00003471700A380E700B707002009472382DF
:1023C000E74A9387474AA380E700930640022381A8
:1023D000D700A381E70037070020B7571E00A107E9
:1023E000232EF748B706004205679307177023901E
:1023F000F6108D472380F606B70780E0DC43D583CF
:10240000BD8BA1459D8D371680E08347B60413F53B
:10241000F70F9307F00FB397B70093C7F7FFE98F54
:102420001145B315B500CD8F93F7F70FA305F6044B
:102430008347960493F7F70F93E71700A304F60476
:102440001306F00223A6C60CFD779387077023942A
:10245000F600B7170042130707B098DB1307C00256
:1024600023A0E71023A607148280311106C822C6D4
:1024700026C42AC02EC215448144B706004083A753
:1024800046184177F98F1247D98F23A2F6180245D3
:1024900097F0FF0FE7808045AA947D1479FC1545DD
:1024A00033D5A402C2403244A24451018280B737DE
:1024B0000020838717F23E95A5576353F5002555F5
:1024C000B737002083C6A7F19385960193F5F50FE2
:1024D000B54763D3A70035459307750193F7F70F09
:1024E000130710020146637DF7001387E7FD1316FB
:1024F0001700374700101307C74D329703560700E0
:1025000013175600137707801376F603598E138737
:1025100016002E07BE06CD8ED98E3387C600939641
:102520001700B747001093870749B69783D707006E
:10253000B726004283A5C60813F6F7033705FCFF4C
:102540001305057CE98D4D8E960793F70780D18F93
:1025500023A6F6089C463706F8FF1306067CF18F83
:10256000D98F9CC6B7170020938707E89356B7000A
:10257000BD8ACE06CC5B370601FF7D16F18DCD8E70
:10258000D4DB9356F700858ADE06CC5FF18DCD8EC5
:10259000D4DFB7060700758FF443758E518FF8C3EB
:1025A00001458280511106C4EF007008B70708404A
:1025B00003A707111367770023A8E7102567130700
:1025C0002764B8D319671307B7BA23A6E7103707EC
:1025D00029217D1798C703A70711B78603FF9386A4
:1025E000F67F758FB746D000558F23A8E710A2401D
:1025F0003101828093172500371500201305C5C3CC
:102600003E951841B7070080D98F371700425CD339
:1026100082801301C1FC06D822D626D497F0FF0F82
:10262000E780C05537360020130686F103472600A1
:10263000B7160020938686DCCC42B70701FFFD1752
:10264000FD8D130597011375F50F4205C98DCCC299
:10265000CC46FD8D130547004E05C98DCCC6B71578
:102660000020938585DAD441FD8E0345560042054E
:10267000C98ED4C1B7140020138404E87444FD8EBD
:1026800083456600C205CD8E74C41303170093768C
:10269000F30F4C58FD8D138516004E05C98D4CD88F
:1026A000485C7D8D93927601B705FF00B3F2B200CE
:1026B0003365550048DC68407D8D8582C206C98E31
:1026C00074C0B7160020938686DEC85A7D8D4E03EF
:1026D00033656500C8DAC85E7D8D131377013373E7
:1026E000B30033656500C8DEE8427D8D13531700E3
:1026F000420333656500E8C279171377F70FB71601
:102700000020938686D8C8467D8D131377013373D6
:10271000B30033656500C8C6C84A7D8D058342078E
:10272000498FD8CA03473600B7160020938686D64D
:10273000D0427D8E13157701E98DD18DCCC2D04664
:10274000F18F058342075D8FD8C66529856793871A
:1027500077402312F102930710022303F102B727F7
:10276000004213076060D8CBB706004083A7461825
:102770000177F98F416713070720D98F23A2F61835
:10278000B7B76086938787531CC0138504E897F01A
:10279000FF0FE7800020B7370020938747F03ECC3B
:1027A0005C103ECE8567938707803ED09DA2894707
:1027B000024763C4E712F24703C50700253D3724EB
:1027C0000042232C040085471CCC0D4718CC1CCCA0
:1027D0001305800C97A000F0E78020105C4C37C7F1
:1027E0000200D98F5CCCA56793872780232AF40C3D
:1027F0005C4CB9838D8B0257B314F7001397040117
:1028000041839305C0193AC23A8585312AC493059C
:102810004026124599395C4C01777D17F98F5CCCC5
:10282000A56793879781232AF40CA2471D8D9317E0
:1028300015003E95060513975400058F0A07269745
:102840003357A7022943B377670293B7570093C75B
:102850001700335767023E971377F70F6244A2853C
:102860002301E4009307A00FB387F402B3D7A702B4
:10287000B3F6670293B6560093C61600B3D7670245
:10288000B69793F6F70F2300D4009307401FB38742
:10289000F402B3D7A70233F6670213365600134685
:1028A0001600B3D76702B29793F7F70FA300F400AF
:1028B000138606FC1376F60F1305F003E369C5EEE5
:1028C0003246B29636C6C246B6973EC8D247BA9787
:1028D0003ECA824785073EC0D9BD8D473247335730
:1028E000F7022380E50042473357F702A380E50053
:1028F0005247B357F7022381F500E2478D073ECCDC
:10290000724705073ACE373700201307D7F06387A1
:10291000E70002C002CA02C802C671BD3715002016
:10292000130585DA97F0FF0FE780A0063707004010
:10293000832747188176F58F93E707202322F7181E
:10294000B72700421D47D8CB97F0FF0FE78040FF25
:10295000294597A000F0E78040F8B7070440F857F2
:10296000B73700202380E7F2312197F0FF0FE7808F
:10297000402D01452D3EC2503254A2541301410353
:1029800082806111B7070040054723A2E716B70709
:10299000004283A747103EC237060042CD46832738
:1029A00046101247998FE3FCF6FEB70700400D472B
:1029B00023A2E716B707004283A747103EC0370699
:1029C0000042CD46832746100247998FE3FCF6FE6E
:1029D000B7070040054723A2E716370700408327C3
:1029E00087169D8BEDFF3707004023220716B70798
:1029F00009009D072328F716210182801301C1FCDD
:102A000006D822D626D4B707002083A2070003A346
:102A100047008847CC47904BD44B984FDC4F16C4A7
:102A20001AC62AC82ECA32CC36CE3AD03ED2B70702
:102A300000403707110023A0E716370709011D07DB
:102A400023A8E716D8538966558FD8D3A1473EC22D
:102A500001448144B7070020938707023EC02DA898
:102A60003A94910682476385F6029C4213D7A700E9
:102A70001376F73F1377072019C3130606C0B294E5
:102A800013F7F73F93F70720E1DF130707C0C9BF2C
:102A90009247FD173EC289C7ED35B7060020F1B752
:102AA000B7070020B24242435245E2457246825681
:102AB0001257A24323A0770023A2570023A4670044
:102AC000C8C78CCBD0CB94CFD8CF13D5F4411375D6
:102AD000F50F2695218542059357F44193F7F70F9B
:102AE000A297A187C207C1835D8DC2503254A25400
:102AF000130141038280011106CE22CC26CA37176A
:102B0000801013070781098F931727003EC8A1473C
:102B1000898F9207371700422322F710C535935447
:102B200005411314050141849307000C3EC293072D
:102B300000FC3EC0635190029307000C3EC6930711
:102B400000FC3EC4635E8000D10493B4940251043F
:102B500013349402B1A0930700043EC23EC0E9BF03
:102B6000930700043EC63EC4C5B7C2469C42371711
:102B7000F0FF7D177D8F9247B207D98F9CC20DEC75
:102B80001DA09245B6952EC236C0B9A8B246B296DF
:102B900036C632C4510793349702D10713B4970253
:102BA000E9D4631B0404C2469C427D773D077D8FB8
:102BB000B2479207D98F9CC291351357054193179D
:102BC0000501C1870246935616406387C602A24597
:102BD00013D615406302B60263980400E34307FA74
:102BE0009245958D2EC236C055F4E3C107FAB24620
:102BF000918E36C632C479BFF2406244D244056138
:102C00008280511106C422C226C037170020B7B7F0
:102C10006086938787532324F7DE3715002013053A
:102C2000C5F397F0FF0FE780C0D6B73700200947FC
:102C30002382E7F2372700428327470CB70600F4C8
:102C4000FD16F58FB7060008D58F2322F70CB716AF
:102C5000004283A7061093E7170023A0F6108327EE
:102C6000070CBD9B2320F70C0144A5441375F40FFA
:102C700059350504E31C94FEB7360020938686F18F
:102C8000B7270042938707023726004213064604FF
:102C9000984311832397E60091078906E39AC7FEBC
:102CA000372700428327070C93E707012320F70CFF
:102CB0003717004283270710F99B2320F710371599
:102CC0000020130545F297F0FF0FE78080CCA2406B
:102CD0001244824431018280511106C422C226C0AE
:102CE000370400408347040793F7E70F2308F406EF
:102CF0008567A107231AF406A9473CDC3C5893E7F3
:102D000027003CD81305400697A000F0E780E0BC00
:102D10003C58F59B3CD81305400697A000F0E7808F
:102D2000C0BB3C5893E717003CD8370700408347A7
:102D30000707C18BEDDF37040040645C3C58F99B0A
:102D40003CD83C5893E727003CD81305400697A091
:102D500000F0E78080B83C58F59B3CD8130540064E
:102D600097A000F0E78060B72685A2401244824415
:102D700031018280B727004203A7870E799B23A4E5
:102D8000E70E3707044023200700D843799BD8C3B8
:102D9000828009C69D4763D3A70041152E956346DF
:102DA000C5003D066353C5002A8641061355F6410A
:102DB00071812A963D8A3305A6408280411106C65C
:102DC00022C426C22AC03724004244405C4493E710
:102DD00007105CC45C4093E7C7015CC05C4093E7AC
:102DE00007205CC01C4493F7F78793E707281CC4AF
:102DF000E5355C4493F7F7EF5CC444C037B7030094
:102E000013070798B367A7029356F501AA9685861C
:102E1000B3A7D70093C717003345A7023E95824753
:102E20003385A740B240224492444101828031114F
:102E300006C822C626C41305A0144937E146334705
:102E4000D5021356F541B347A600918FB3E7D702D9
:102E50002D4681466356F6009356F54193E61600DB
:102E6000369793178701E18737360020130686F1DE
:102E7000A305F6001377F70F9306570093F6F60FA6
:102E800093855700A301B6009305000F014663E93F
:102E9000D5003686BD4563F3D5003D461376F60F63
:102EA000B7360020238DC6F093863700860693F64A
:102EB000F60F9305000F014663E9D5003686FD4500
:102EC00063F3D5007D461376F60FB7360020938660
:102ED00086F12382C60006071377F70F13067700E3
:102EE000A382C6001386C70006062383C600150703
:102EF000A383E60013972700998F8E073E95994686
:102F00003347D5021356F541B347A600918FB3E777
:102F1000D702094681466356F6009356F54193E67B
:102F20001600B307D70093948701E184373400205B
:102F3000130484F123059400B72700209387876248
:102F40003EC098430146A6853AC21375F7009135F5
:102F50002300A4001247135507016156A6853D8939
:102F60000D3DA300A4008D47A304F4008247D05B6D
:102F700052065182B74700109387474E9385C7008A
:102F800001450D47054321A08907638BB70083D610
:102F90000700E34BD6FE7D17620761871A85EDB700
:102FA00009C5B7370020A380E7F2EFE09FC6EFE046
:102FB0005FDAC2403244A24451018280130520519D
:102FC0008280511106C422C226C0976000F0E780BB
:102FD000405E31CD974000F0E78000D537150020E6
:102FE0001305458E979000F0E780804F2A8425C115
:102FF0008347C40005476380E70A0D47639EE70ADD
:10300000914513050401979000F0E780E052834654
:10301000250083473500A20703574401D58F63037A
:10302000F7042285979000F0E780A04695A8976066
:1030300000F0E7802001B7170020094723A6E78E9C
:10304000B717002083A7878FD1D7829761B737152D
:1030500000201305C58D979000F0E78060482A8412
:1030600041F93DA88347050083441500A204DD8C87
:10307000139544015181974000F0E780E0B711C5F6
:1030800013D6C400A2853D2821A82285979000F080
:10309000E780204031A02285976000F0E78080899A
:1030A000B717002083A7478F9C4791C38297A24000
:1030B00012448244310182802285979000F0E7809B
:1030C000403DF9BF411106C622C426C2AE848347E3
:1030D0006500C1C72A8485476309F60C89476312D6
:1030E000F6145C4589C7974000F0E78080999448C2
:1030F00083C51600A20583C70600DD8D03D64401F3
:103100001387450042074183118F83D76401918F54
:10311000904C918E958FC207C18363CAE70444C463
:103120004C4403D74501854763FEE702944983C7B2
:103130001600A20783C60600D58F9107C207C18378
:103140006362F70263E9E70E232604000546228541
:10315000976000F0E780207331A02E85979000F0F3
:10316000E7802033B2402244924441018280B1057D
:10317000C205C1810D45977000F0E780C0B745D109
:1031800003D644018C482AC0084997A000F0E78084
:10319000A08283D744010247231AF700268597901F
:1031A00000F0E780002F82449DBF48451DC903D62B
:1031B000450139C28357650103574501998F184965
:1031C000144D158F998F63EFC7028C494105979075
:1031D00000F0E780203B2685979000F0E780602B89
:1031E00081B72285974000F0E780A08926859790D7
:1031F00000F0E780002ABDB72E85979000F0E780A9
:1032000040298DB70146AA852285976000F0E780A6
:103210008067232604002685979000F0E7806027CA
:1032200091B7974000F0E780C0852685979000F021
:10323000E780202605BF2285974000F0E780608464
:1032400015B7511106C4EFE0FFD215CDB707002026
:1032500003C64776635CC002B717002083A7C78305
:10326000D8531DE7D84B1DE7938787080507630BE5
:10327000C700944B95E29387470783A6C7F8FDD60E
:10328000014511A00545A240310182800545E5BFF9
:103290000145D5BF0145C5BF0145F5B7511106C46C
:1032A0000145970000F0E780208F03470500B737FE
:1032B00000202388E7F6A240310182801301C1FD7E
:1032C0002A872E8526CCB6829394C5009356F501A5
:1032D000D18106D022CE93F5F57F36C4B180C1C529
:1032E0009306F07F6384D50E1354D7018E04B7077D
:1032F0008000458C5D8C938515C093173700014382
:1033000093D642011397C20093F6F67F9353C700FA
:1033100093D4F201F1CA1307F07F6388E614139582
:1033200033001357D601498F37058000B363A700D8
:10333000938616C01315360001472246B386D54042
:1033400036C093162300258ED98E32C2FD1639461B
:10335000636AD612171600001306C6198A06B296BB
:103360009442B296828633E4E4003DC416C632C26B
:103370009DC826853AC0EF00D03402471246B242BB
:10338000AA87930555FF7544938687FF0D8CB394E8
:10339000D40033548700458CB314D7009305D0C0B4
:1033A0009D8DA687A9BF3A853AC0EF00903193055D
:1033B0005501F14602471246B24293070502E3D493
:1033C000B6FC130485FF33148700C9BF33E4E4005F
:1033D00001E8814709432DB78147814505430DB772
:1033E000BA8726840D4329BF33E5C30049C56386E8
:1033F00003041E8532CA1AC82EC63EC21EC0EF0084
:10340000502C82439247B24542435246AA869302C9
:1034100055FF7547138586FF33075740B393A300C5
:103420003357E60033677700B313A6001306D0C006
:103430001E85B306D640BA8301B732851ECA1AC8A4
:103440002EC63EC232C0EF00D0279302550171470D
:1034500002469247B2454243D24393060502E35ADD
:1034600057FA61153317A600D1B733E5C30001E958
:1034700081430947D9B58143814605477DBD3285E2
:103480000D4765BD63E68300631D742A63EBA72ABD
:103490009316F40113D717001393F7010580B3E7D0
:1034A000E6001397830093540701B3569402135612
:1034B0008501598E1317060141833AC493D507013C
:1034C00093128500337494023307D70242044D8C63
:1034D000B685637CE40032949385F6FF6367C4008D
:1034E0006375E4009385E6FF3294198CB356940219
:1034F000131706014183C207C183337494023685D2
:103500003307D7024204C18F63FCE700B2971385EB
:10351000F6FF63E7C70063F5E7001385E6FFB297A0
:10352000C205C98D998F9396020113970501C18237
:1035300013D4020113D505014183B303D70236C466
:103540003307E402B306D50233058502369713D458
:10355000030122976374D700C1663695C203935660
:10356000070193D3030142071E97AA963AC463E763
:10357000D700AE836392D7046370E304330553002E
:10358000333465003307C400BA979383F5FF2A8369
:103590006365F6006312F60205E063E7D700639DFA
:1035A000F6002247637AE50016959383E5FFB3356D
:1035B0005500B2952A83AE972247B386D7407D55F2
:1035C0003307E3403333E300B38666406300D6102D
:1035D00033D5960293170601C183B385A702B3F7CB
:1035E000960293560701C207D58FAA8663FCB700DF
:1035F000B2979306F5FF63E7C70063F5B70093063C
:10360000E5FFB2978D8F33D5970293150601C181DF
:1036100042074183B3F797022A83B385A502C20705
:103620005D8F637CB70032971303F5FF6367C700B4
:103630006375B7001303E5FF3297C206B3E6660071
:103640001394020193D7060141800D8F1395060153
:103650009395020133838702418113D40201C18112
:10366000B385A5023305A402B307F4021A9513D457
:10367000050122956374650041639A971353050110
:10368000C2054205C1819A97AA956366F7003685FF
:10369000631CF70285CD32971385F6FF3A83636189
:1036A000C7026366F7006311F70263FDB20013857A
:1036B000E6FF9396120033B3560032933A93B682E4
:1036C0006314F300638455001365150082479387E4
:1036D000F73F6350F00A1377750001CF1377F500B9
:1036E00091466308D7003307D500B336A700B693D9
:1036F0003A8513977300635A0700B70700FFFD1759
:10370000B3F3F3008247938707401307E07F6341D9
:10371000F710135735001395D301598D93D3330008
:103720001247B20382507244D20793D3C300B3E767
:1037300077007E07B3E6E700E244B6851301410255
:103740008280024701437D173AC0A1BB26C23A835B
:103750008947630FF30A8D476305F30A8547E3172B
:10376000F3F681430145BDA02247A2833E853AC2BC
:10377000C5B7854689CB9D8E13078003E343D7FEEB
:103780007D47634BD70482471387E741B357D50082
:103790003315E5003335A0003397E300598DC98F09
:1037A000B3D3D30013F7770001CF13F7F700914697
:1037B0006308D7003387D700B336F700B693BA87CC
:1037C00013978300634B07041395D3018D835D8D9D
:1037D00093D333008147A9B70557B307F7401306C2
:1037E0000002B3D7F30001476387C60002471307FF
:1037F000E7433397E300498F3337E000D98F8143A4
:1038000055B7B703080001459307F07F02C209BF0F
:10381000814301459307F07F21B7814301458547E7
:1038200001B7370310007D13311132873376B300AF
:1038300093D7450122C613D4F501931536001356CC
:10384000D5013373D30026C493F4F77FB367B60072
:1038500093D546019312330006C81353D70193F54D
:10386000F57F1306F07F0E05FD82336353000E07CC
:103870006395C5003366E30019E293C616003386EC
:10388000B4409302F07F639286266359C010ADE581
:10389000B366E30099CE1386F4FF11EA2A97B33694
:1038A000A7003E933A85B307D300854451A8639B94
:1038B00054041397D7010D8113D637009307F07F77
:1038C000498F6399F400518F014609C737060800F4
:1038D0000147014493974401B706F07F3206F58F04
:1038E00031827E04D18FC240B3E687003244A244C5
:1038F0003A85B68551018280E38D54FAB70680007F
:103900003363D3009306800363C5C608FD46930264
:10391000000263CDC604B382C240B355C700B316DC
:103920005300B3125700CD8EB332500033E7560028
:103930003356C3003A953E963337E500B307E600A9
:10394000139787006357071685041307F07F638971
:10395000E448370780FF7D17F98F13571500058955
:10396000498F1395F701598D8583A1A2930606FE11
:10397000B356D30081456307560093050004918D2B
:10398000B315B300D98DB335B00033E7B6000146A7
:1039900055B73367E3003337E000D5BF55C2B38670
:1039A000954091EC33E6A70019C61386F6FFE307AE
:1039B00006EE639C56009A873A85B684DDBD638423
:1039C000554237068000D18F36869306800363C444
:1039D000C606FD469303000263CAC602B383C34012
:1039E000B3967700B352C500B3137500B3E6560023
:1039F000B3337000B3E67600B3D7C7003385E60073
:103A00009A97B336D500B697AE841DBF930606FECF
:103A1000B3D6D70081426308760093020004B382D4
:103A2000C240B3925700B3E2A200B3325000B3E6F3
:103A300056008147E1B7B3E6A700B336D000D5BF43
:103A40009386140013F6E67F39E6B3E6A70085E80F
:103A500063890622B366E300638C06362A973E9399
:103A60003335A7002A939317830063DC07203706BA
:103A700080FF7D16B377C3003A8585441DBD638CF6
:103A800006343363E3009684E30503E20144B70799
:103A90004000014539BD638456342A973335A70069
:103AA0003E932A931315F3010583598D9357130001
:103AB000B6841377750001CF1377F500914663083C
:103AC000D7003307D500B336A700B6973A851397CA
:103AD0008700E35007DE85041307F07F6382E4303C
:103AE000370780FF7D17F98FE9B36351C00CC1E13F
:103AF000B366E300E38F06DA1386F4FF01EE3307C3
:103B0000E540B336E500338367403A85B307D340D9
:103B10008544A1A0E38F54D89306800363C3C608ED
:103B2000FD469302000263CBC604B382C240B35584
:103B3000C700B3165300B3125700CD8EB3325000F6
:103B400033E756003356C3003307E540B336E5008C
:103B50003386C7403A85B307D64013978700E35AA8
:103B600007F4B7058000FD15FD8D2A866DA2E3825E
:103B700054D4B70680003363D30079BF930606FEA2
:103B8000B356D30081456307560093050004918D19
:103B9000B315B300D98DB335B00033E7B600014695
:103BA00065B73367E3003337E000D5BF4DCEB3834D
:103BB000954085E833E6A70005C21386F3FF19EAAE
:103BC0003305A7403303F3403336A700B307C340A0
:103BD00036843DBF639D530036849A873A859E8420
:103BE000C9B96381552037068000D18F1E869302A4
:103BF000800363C6C206FD421304000263CCC20206
:103C0000118CB353C500B392870033148500B3E21F
:103C100072003334800033E5820033D6C7003305A9
:103C2000A7403306C340B337A700B307F640AE84BE
:103C3000368425B7930206FEB3D25700814363084A
:103C4000860093030004B383C340B3937700B3E3C8
:103C5000A300B333700033E572000146C9B75D8D30
:103C60003335A000DDBF138614001376E67F2DEEFA
:103C70003366E300B3E5A700B9E899E963090616DE
:103C80003684336567006DC99A873A85814415B5D6
:103C900063000614B305E540B332B50033866740D0
:103CA000330656409312860063DC02003305A740BA
:103CB0003336A7003303F3402A873303C340C9B721
:103CC00033E5C5006307051232832E875DBF89E99E
:103CD0003684631206100144B70740000145F5A879
:103CE0009684E30806BC5DB3B302E540B3335500E8
:103CF000B3856740B385754093938500168663D975
:103D000003063305A7403303F3403337A7002A8661
:103D1000B305E3403684A5C52E8532C22EC0552298
:103D200082451246130785FF130300023303E34065
:103D3000B395E500335366003363B300B315E60073
:103D400063409708058F13061700FD47930600028E
:103D500063C7C704918E3317D300B3D7C500B3969A
:103D6000D5005D8FB336D000558F3353C30011BFDC
:103D700033E5B2004DF10144814781441DBE3285D7
:103D80002EC232C03D2A13078501FD4702469245E7
:103D9000E3DCE7F8130385FF3313660055B7051717
:103DA0003357E30081476307D60093070004918FE0
:103DB000B317F300CD8FB337F0005D8F0143D1B55A
:103DC000370680FF7D16998CB377C3002E85D5B159
:103DD0003E832A877DB59A873A859684D9BCB68476
:103DE000814745B936849A873A85AE84D9B401446F
:103DF000C5BF0144814775BC13D745013706100084
:103E0000AA869307F6FF1377F77F1305E03FED8F40
:103E1000FD816354E5041305D0416357E500370580
:103E200000807D152E958280D18F13063043198E28
:103E30007D45634DC5001307D7BE3395E700B3D664
:103E4000C600558D81CD3305A04082809306304158
:103E50003387E64033D5E700F5B70145828051113D
:103E600006C422C226C0AA8731C91357F541B344FC
:103E7000A700998C1354F5012685A1209307E041F2
:103E80002947898F6347A7022D47098F550533D7E7
:103E9000E400B394A40032073183D2077E04D98FA3
:103EA000A24033E7870012442685BA858244310157
:103EB000828055153397A4008144F1BF0144014726
:103EC000E5BFC1676376F5029337051093B7170016
:103ED0008E07130700021D8F3355F500970700006A
:103EE00093870765AA9703C507003305A74082801B
:103EF00037070001E147E37EE5FCC147D9BF03472F
:103F000015008347050022075D8F83472500034581
:103F10003500C207D98F62055D8D82809357850079
:103F20002380A500A380F5009357050161812381BB
:103F3000F500A381A5008280034715008346050094
:103F4000AA872207558F8346250003C657000345DD
:103F50003500C206D98E03C74700220683C5770005
:103F6000598E03C767006205E2054207518F558DE0
:103F7000D98D828093578500A300F60093570501E1
:103F80002301F60093D785002300A6002302B60084
:103F90006181A302F60093D70501E181A301A60088
:103FA0002303F600A303B600828000002000000077
:103FB000303132333435363738396162636465669F
:103FC0000000000030313233343536373839414261
:103FD00043444546000000004552524F5200000045
:103FE000676174745F646174615F7772697465207E
:103FF0000A00000025303278200000000A2000006E
:104000006363635F6366675F656E61626C65203AD8
:104010002564200A00000000436F6E6E65637469BA
:104020006F6E206661696C6564202865727220304D
:104030007825303278290A00436F6E6E65637465A7
:104040006420737563636573736564212028636FEF
:104050006E6E2D3E68616E646C652030782530325E
:1040600078290A00626C655F706172616D5F7265CC
:1040700071212028636F6E6E2D3E68616E646C65E1
:1040800020307825303278290A000000626C655FA4
:10409000706172616D5F7570646174652120286361
:1040A0006F6E6E2D3E68616E646C652030782530D1
:1040B0003278290A00000000626C655F7068795FE1
:1040C000757064617465212054585F5048593D25CE
:1040D000782C52585F5048593D2578200A0000003E
:1040E000676174745F646174615F72656164200A02
:1040F0000000000073746172745F61646472203A3E
:104100002578202C25640A00446973636F6E6E6500
:104110006374696F6E20726561736F6E20286572BB
:104120007220307825303278290A0000426C75659B
:10413000746F6F746820696E6974206661696C655C
:10414000642028657272202564290A00626C655F0C
:10415000757365725F736572766963655F696E69B1
:1041600074200A004164766572746973696E672011
:104170007375636365737366756C6C7920737461B2
:1041800072746564210A00004F544120434D44205D
:104190002578200A2000000025782000200A200031
:1041A0007365676D656E745F646174615F6D61787E
:1041B0005F6C656E6774683A2564200A0000000031
:1041C0006261736520616464723A257820207369A6
:1041D0007A653A25640A000073746172742072650E
:1041E00071207374617475733A2564200A000000AD
:1041F00053444B5F56455253494F4E3A2578200A57
:104200000000000053444B5F444154453A25782058
:104210000A00000061707020626C6520696E69742C
:104220000A200000206C6F6F70203D202564200A5A
:1042300000000000636F6E6E20757064617465200D
:104240006661696C65642028657272202564292E78
:104250000A0000000A000000434849505F50554DD5
:1042600050000000580200106E0200105A030010A7
:104270005A0300105A0300105A0300105A0300108A
:104280005A0300105A030010540200105A03001081
:104290005A0300105A030010CE0200105A030010F7
:1042A0005A030010820200105A030010C4020010CA
:1042B0005A0300105A030010CE0200105A030010D7
:1042C0006E020010360800106E0800105E08001024
:1042D000120900103C0900105E0800104E09001081
:1042E00000010203040506009843001006000000C8
:1042F000204300100600000001010000D00A002049
:10430000AA050000C80A0020090900005842001050
:1043100001010000C40A002003020000C00A0020BE
:104320007C0A0020BA77000000000000780A002014
:1043300000000100740A0020A478000000000000C2
:104340006C0A002000000100680A0020960400109A
:104350003C0500100000000000000300640A00207B
:10436000A4780000000000005C0A002000000100AA
:10437000580A002040040010CA0700100000000086
:1043800000000200540A0020867A0000DA7400005F
:10439000400A002000000300BC0A0020BA77000099
:1043A00000000000B80A002000000100B40A00204C
:1043B000A478000000000000AC0A0020000001000A
:1043C000A80A0020000000006803001000000000A0
:1043D00000000200A40A0020A478000000000000F1
:1043E0009C0A002000000100980A0020B40400107C
:1043F000000000000000000000000100940A0020FE
:10440000867A0000DA740000800A002000000300B1
:10441000B4000040B8000040941080E00002014069
:1044200004020140080201400C0201401002014058
:104430001402014000030140040301401000014048
:10444000700101408001014090010140A001014044
:1044500040010140000000000000000000805640C4
:10446000000000000040654022BA0000C8B900000A
:10447000B6B9000014E24A3C28001800500120039D
:1044800096002C0100002C0101000000771E0000A6
:104490000E101A101D1029102B102D1039103A1063
:1044A0003B103D104D18881889188A188B188C18E5
:1044B0008D18CA18CB18CC18CE180C190D194C1918
:1044C0004D198D19CD190D1A4D1A8D1ACD1A4D1B76
:1044D000CD1BCD1C4D1ECE1FCE1F000080008200C4
:1044E0008A00000009036803D2034904CF0466056B
:1044F00020F3FFFF72F2FFFF5CF2FFFF72F2FFFF9B
:1045000012F3FFFF72F2FFFF5CF2FFFF20F3FFFFE9
:1045100020F3FFFF12F3FFFF5CF2FFFF78F2FFFFD3
:1045200078F2FFFF78F2FFFF12F3FFFF00010202B3
:10453000030303030404040404040404050505053B
:104540000505050505050505050505050606060617
:1045500006060606060606060606060606060606FB
:1045600006060606060606060606060607070707E7
:1045700007070707070707070707070707070707CB
:1045800007070707070707070707070707070707BB
:1045900007070707070707070707070707070707AB
:1045A0000707070707070707070707070808080897
:1045B000080808080808080808080808080808087B
:1045C000080808080808080808080808080808086B
:1045D000080808080808080808080808080808085B
:1045E000080808080808080808080808080808084B
:1045F000080808080808080808080808080808083B
:10460000080808080808080808080808080808082A
:10461000080808080808080808080808080808081A
:0C4620000808080808080808080808082E
:0C462C0040460010000A0020CA060000F2
:08463800282500209302000078
:10464000D6030010A006001006040010200400107D
:104650000000000000000000000000002E04001018
:10466000000000000000000000010203040500003B
:104670000000007000000170000002FF000001FF58
:1046800000260020000000000000000000000000E4
:10469000000000000000022900000070300A002025
:1046A000000028000000032800000170340A0020E8
:1046B000000006000000032800000026000000287B
:1046C0001426002000000000B803001000000000C5
:1046D0000000000000000229000002FF380A00204C
:1046E0000000120000000328000001FF3C0A002027
:1046F0000000040000000328000000FF0000002864
:1047000000FF000006000000789F0443080000003E
:104710000600000000000000000000000000000093
:104720000000000000000000000000000000000089
:104730000000000000000000000000000000000079
:10474000000000000000000000000000260D001026
:10475000000000000000000000000000260D001016
:10476000000000000000000000000000260D001006
:104770000000000000000000000000000000000039
:10478000BE090010260D0010A8110020EA1100201B
:10479000260D0010260D0010260D0010260D00100D
:1047A000260D0010260D0010260D0010260D0010FD
:1047B000260D0010260D0010260D0010260D0010ED
:1047C000C2090010260D0010260D0010260D001045
:1047D000260D00102E120020260D0010260D0010B0
:1047E000C6090010CA090010CE090010D209001035
:1047F000D6090010DA090010DE090010E2090010E5
:10480000300001404000014004110042A00001407E
:10481000A400014003330204010001301815E862CE
:1048200073340000E0030020F807002000000000BF
:1048300080501300840000424030020215200042E4
:104840004030010100100042002003000000000081
:10485000805002002710004248300080152000429E
:1048600040300042840000424830000215200042DF
:10487000483000050505051401000000ABAA820CB4
:104880005555850C0000880CABAA8A0C55558D0C2B
:104890000000900CABAA920C5555950C0000980C9A
:1048A000ABAA9A0C55559D0C0000A00CABAAA20C0B
:1048B0005555A50C0000A80CABAAAA0C5555AD0C7B
:1048C0000000B00CABAAB20C5555B50C0000B80CEA
:1048D000ABAABA0C5555BD0C0000C00CABAAC20C5B
:1048E0005555C50C0000C80CABAACA0C5555CD0CCB
:1048F0000000D00CABAAD20C5555D50C0000D80C3A
:10490000ABAADA0C5555DD0C0000E00CABAAE20CAA
:104910005555E50C0000E80CABAAEA0C2B56160026
:104920000000000000500A00042000424030000453
:104930000C200042403000011820004240300001AD
:10494000182000424030010118200042403000028F
:10495000182000424030020218200042403000027D
:1049600008000042802000F79C0200200860000040
:104970001820004240300001002000424030000179
:104980000C20004280200000042000424030000142
:104990000420004240300002042000424030E0FC8D
:1049A000052000424830000108200042403080804D
:1049B0000920004240300207102000428020AB0056
:1049C000300D002008600000D220004240300F0F60
:1049D000082000424030808009200042403001071A
:1049E000102000428820FF01050108404030051FCB
:1049F000082000424030003F102000428020AB00E1
:104A0000300D0020086000000820004240301E3FAA
:104A100009200042403078781020004280200000B9
:104A2000D22000424830030F000000002020241054
:104A3000DC200042403080C0DD20004240300107D1
:104A4000DC20004240303C3CE420004240300C1C62
:104A5000DE2000424030040409200042403020782B
:104A600009200042403000800A2000424030020706
:104A7000DD20004240300008E2200042403000804B
:104A8000E32000424030000300200042403001019A
:104A90000420004240300101042000424030FCFC70
:104AA00005200042403001011C200042403000102F
:104AB0000C2000428020FF00E00C00200860000075
:104AC0000000000020202410DC2000424030C0C044
:104AD000DD20004240300207DC2000424030203C14
:104AE000E42000424030141CDE200042403000042C
:104AF0000920004240303078092000424030808058
:104B00000A20004240300207050108404030101FD3
:104B1000DD20004240300808E22000424030808022
:104B2000E3200042403003030020004240300101F6
:104B3000042000428020FF0315200042403006067A
:104B40001C2000424030101027100042403080806E
:104B50000C2000428020F700E00C002008600000DC
:104B60007000000024020020006000007C02002091
:104B700000600000680D002008600000E80D0020C3
:104B800000600000000000000050320074020020AD
:104B900000600000880D002000600000041000424A
:104BA0000020010084020020006000002C02002090
:104BB0000860000004010040000080E04C1080E02C
:104BC000481080E0080000421C000042240000421F
:104BD0006000004200010042140100423010004217
:104BE000001100424C11004208200042A82000425F
:104BF0008C2000422000004024000040280000409B
:104C00002C000040FFFF0000B707001F054798C3B6
:104C10009546D4C3D8C7D8CFC84F8280711106C07B
:104C2000F3770430B707001F23A007001947D8C344
:104C30000547D8CF8D4694C393060002D4C388C7D6
:104C4000D8CFD937058975FDF3670430824011014B
:104C50008280711106C0F37704303707001F2320CC
:104C6000070099475CC385475CCF95471CC38947BC
:104C70005CC39307C6FFB337F000B307F04008C723
:104C80009D8B50C7850781461306070113952600A3
:104C90002E950841850608C2E39AD7FE85475CCF6A
:104CA000A537058975FDF3670430824011018280C4
:104CB000B707001F194798C31307B003D8C388C7A5
:104CC0001147D8C70547D8CF984BB727002023A452
:104CD000E7528280311122C626C42E8432C206C811
:104CE0002AC0B684F1371246372700208147930542
:104CF000875263C9970032440245C240A24411461C
:104D0000510181BF3307F600834607003307F400E3
:104D10002E972300D7008507E9BF011122CC26CAB0
:104D20002E872E8406CE93753500B2842A839DC1CA
:104D300091473384B7406353860032847199A286C9
:104D40003A863AC22AC0793702451247818C13034A
:104D500045003A9402C015468D4663D69602B3D7F5
:104D6000C44085463EC23396C6008142924763974F
:104D7000570282477D16F18C9386170085470946B6
:104D80003EC0E39BC6FC635B900422866244F24013
:104D9000A686D24481451A8505612DBF93763400DD
:104DA000A2858DC2B726002093868652368516C806
:104DB0001AC632C497C000E0E7800084C242324382
:104DC0002246AA851A8516C832C61AC459353246F3
:104DD0002243C24232943293850249BFF240624478
:104DE000D2440561828015BF130181FD06D216D021
:104DF0001ACE1ECC2ACA2EC832C636C43AC23EC00B
:104E0000EF00B043B92EEF00D046192E352A92504C
:104E100082527243E2435245C2453246A24612478D
:104E200082471301810273002030130181FD06D2F5
:104E300016D01ACE1ECC2ACA2EC832C636C43AC2E2
:104E40003EC097B000E0E78020A0EF009042C92C60
:104E5000E528925082527243E2435245C24532469F
:104E6000A2461247824713018102730020301301CA
:104E700081FD06D216D01ACE1ECC2ACA2EC832C642
:104E800036C43AC23EC0970000F0E7802028925016
:104E900082527243E2435245C2453246A24612470D
:104EA00082471301810273002030711122C0370341
:104EB0000140032703039347F5FFF98F2328F302EB
:104EC000130303209142370401401304842125A0D9
:104ED00005812207A2068507638A5700937515008E
:104EE000E5D99345F7FF6D8E558EDDB723A0C3003E
:104EF0001103630B83009A83032603009306000AC1
:104F00001307F00F8147D9BF02441101828071114C
:104F1000B707004283A747103EC0B706004283A7E9
:104F200046100247998FE3ECA7FE110182807111B0
:104F300006C09307803E3305F50297B000E0E78096
:104F4000C05D824011018280511106C4FD2AA24039
:104F5000310182803707004093078010231AF7063B
:104F60008547B397A7003CDF6D151375F50FB7277D
:104F7000002093870767A382A7008280370700403D
:104F800083470707C18BEDDFB727002093870767AB
:104F900003C7A7001377F70F93161700BE9603D623
:104FA000C60093150601C181D04F0D8ED0CF3706B4
:104FB0000040705E83C557003356B60042064182FA
:104FC0002396C60083D6C600C206C182D04FB296D1
:104FD000D4CF05071D8B2385E70083D7A701C20720
:104FE000C18399CB37270020130707675C4F8D8358
:104FF000C207C1832314F7008280B7070140054729
:105000002386E720A386E7202388E720A388E720DC
:1050100023850720375732001307074123A0E730C5
:1050200082808280B7170020938707BC3727002033
:105030000327476B130747049385470110439443A5
:1050400090C291071107E39BB7FE8280511106C4FD
:10505000EF108007AA87014581E7A24031018280D5
:10506000EF10C00CDDBF3707014034438547B397CD
:10507000A70093C7F7FFF58F3CC38280511106C488
:1050800022C2372700421C4793F707FC93E7E7014A
:105090001CC73704004085473CC8054597B000E071
:1050A000E780A0478D473CC8154597B000E0E780F2
:1050B000C0469D473CC8054597B000E0E780E04505
:1050C000BD473CC8194597B000E0E7800045A240C5
:1050D000124431018280511106C4B7070040130702
:1050E000800F23A0E7100D47F8D7493FA2403101B8
:1050F00082808280B70700401307800F23A0E7104B
:105100008280511106C4812AA24031018280B707F2
:10511000004203A547109307803E3355F502828075
:10512000511106C40145971000E0E780E06A83470B
:10513000050089CB8347650091C7B7370020054735
:105140002385E7F4A24031018280B707002083C79E
:10515000574291E38280511106C44521A24031019A
:105160008280411106C622C426C2B707002003A4CC
:105170008742B7070042DC4359C8370700201307AE
:105180000742834667002300D40003477700A3004B
:10519000E400139707014183A18B3335F0002AC047
:1051A00089C79377470093B7170093F4F70FB717A2
:1051B000004203C7071E9387071C1377F70FB73604
:1051C000002023A4E6F683C7C70293F7F70F37370B
:1051D00000202326F7F65D2DB707004205472382FE
:1051E000E706B7070020A3820742B737002003A6CF
:1051F00087F6A28662066186A6850245974000E092
:10520000E780A0C7B2402244924441018280814499
:1052100002C0D9B7B717002083A787BE83D707007E
:1052200001458DEBB717002083A747BE9C4305457A
:1052300095C3B707004203A5471103A74710D177CD
:10524000938707CB3E95198DB747FF7F938707CB91
:105250003335F5008280511106C422C226C0AA84CB
:10526000B7170020938787DE630BF506B70700208A
:1052700003C70742B7170020938747C3BA9783C76E
:105280000700C2079566A106D58FB706002023AE9A
:10529000F6487D741304E4692E9405841374F40FA6
:1052A000BA85894763F3E700894593F5F50F2285B1
:1052B0003529014501468146371700209315240002
:1052C0001304C7C32E941C40958FB3D7A700D18F6A
:1052D0009CC02685A2401244824431018280B737A7
:1052E000002083C757F193F7F70F8DC3B72600420D
:1052F00083A7C60C3707D0FF1307F7CFF98F3707FF
:10530000100013070710D98F23A6F60C93F715008A
:10531000A5CBB737002003D787EFB7070020239B23
:10532000E74A7D741304F4692E9405841374F40F12
:10533000372700428327070C93F7F7F72320F70C52
:10534000B737002083C757F193F7F70F8DE3B726E0
:10535000004283A7C60C3707D0FF1307F7CFF98F9A
:105360003707100013070710D98F23A6F60C014545
:10537000E92E054537060080D567938657552DBF22
:10538000B737002083D787EF990737070020231B03
:10539000F74A7D741304046A2E9405841374F40F81
:1053A000372700428327070C93E707082320F70CD1
:1053B000B737002083C757F193F7F70F8DE3B72670
:1053C000004283A7C60C3707D0FF1307F7CFF98F2A
:1053D0003707200013070720D98F23A6F60C0545B1
:1053E000AD26054537060080B7B702009386B7AAF9
:1053F000E1B5B737002083C757F193F7F70FC5C75B
:10540000B737002083C747F199EFB737002093875C
:1054100087F103C757000907A382E700B7370020C9
:105420000547238AE7F0B7270042B857419B136727
:105430004700B8D7F857419B13677700F8D7B85B98
:10544000419B13677700B8DBF85B419B13677700DC
:10545000F8DBB85F419B13677700B8DFF05FFD763C
:105460009386F60F758E056713070780598EF0DF58
:1054700003A60708758E598E23A0C70803A6470800
:10548000758E598E23A2C70803A68708F18E558F03
:1054900023A4E70803A7870C1377F78F1367072068
:1054A00023A4E70C8280B7270042B857419B1367BB
:1054B0004700B8D7F857419B13677700F8D7B85B18
:1054C000419B13677700B8DBF85B419B136777005C
:1054D000F8DBB85F419B13677700B8DFF45F7D7737
:1054E0001307F70FF98E93E60620F4DF83A607086B
:1054F000F98E93E6062023A0D70883A64708F98EE5
:1055000093E6062023A2D70883A68708758F136722
:10551000072023A4E70803A7870C1377F78F1367E7
:10552000072023A4E70C8280511106C422C237242D
:1055300000428327C40C37070010D98F2326F40CB0
:105540008327C40C370700F07D17F98F2326F40C4E
:1055500085471CCC95471CCCE1473355F502150512
:105560004205418197B000E0E78020FB0325040F4E
:105570002E052D81A240124431018280511106C4B2
:1055800022C2B7270042D84313671700D8C3370495
:105590000440094718C003A7870E1367170023A408
:1055A000E70E930780085CC0916789073CD093079A
:1055B000F0303CD8114597B000E0E78000F6B747DF
:1055C000008089073CD0A240124431018280B70795
:1055D000004223800706C8C7054798C33707004223
:1055E0008347470693F7F70FE5DFB7070042054704
:1055F0002382E7062380E7068280B737002083A74F
:10560000C7EF99CB370700400327070B1D8FB787DC
:105610000200ED1763FBE70C011106CE22CC26CA6F
:10562000B7070840D4473704044018403AC05040F8
:1056300032C22C502EC4D84713678700D8C72858C9
:105640002AC6370600400C5638581367170038D85A
:10565000B72400421307F03FD8C021672EC84D8FF2
:1056600018D6D4C7213F214597B000E0E780E0EA93
:105670007C5437370020034707F2998F910713D7DF
:105680003740B727002083A74765BD83FD8BB387CD
:10569000E70295072947B3C7E702373700202328D9
:1056A000F7F0B706004003A7060BB737002023AE7C
:1056B000E7EE83A7840EF99B23A4F40E23200406AF
:1056C00023280406DC40F99BDCC0024718C01246C0
:1056D00050C0A2473CD0324528D8C2458CD67C5415
:1056E000F2406244D244056182808280B54701471E
:1056F00063F6A70069473337A7000507B7160042CE
:105700009052C1777D8E93171700BA9737370020D4
:10571000130747F03E972E9783470700373700203F
:10572000032707F1BA97371700201307C7CD2E9725
:10573000034707002207D98FD18F9CD28280511155
:1057400006C49D2CA24031018280B737002083C758
:1057500007F06386A700B73700202380A7F0828078
:10576000B73700207D572380E7F037360020130637
:1057700086F1B7260042938606020147A545835766
:10578000E6009207BA979CC2050709069106E3183E
:10579000B7FEB726004283A7460C370700F47D17F3
:1057A0007D8FB737002083C747F2EA07D98F23A23E
:1057B000F60C828082808280511106C422C226C0EB
:1057C000372400421C4493F707FC1CC49D475CC867
:1057D0005C4C71774107F98F1167130787CED98F1A
:1057E0005CCCB71400429C50370701FF7D17F98F3E
:1057F00037071400D98F9CD0B14723A8F4145C401C
:1058000093E707205CC0B70700400D4723A0E730AF
:105810005C4093E7070E5CC01C4893E7B70A1CC8BE
:105820008327040E93F7F7E393E7070C2320F40E86
:105830008327440E93F7F7E193E707162322F40E2C
:105840008327440D056713070780D98F232AF40C9B
:105850004D368327C40A93F7F7EF2326F40AB717C8
:10586000002083C707F223ACF41011679307F7FFFA
:1058700023A8F412A24012448244310182805111C3
:1058800006C4753DF13DA24031018280B71700206A
:1058900083C787C39DCB630A050A371700420327D6
:1058A0000710058B05E3B717004203A7C71E83A6A1
:1058B000071093E6160023A0D7101377F70F23A243
:1058C000E710828005476383E7008280B7170042B4
:1058D00083A6071E13F7F60F83A7471E93F5F70F4E
:1058E00013F6F60793F70704CDC31377070419E3FC
:1058F0001306F007B717004283A6C71E93F6F60FEC
:1059000093D7460013F7F60013056007636BB508DD
:105910001305B006636CB500A18A89EA0507137701
:10592000F70FB9CBFD1793F7F70FB9A093066007F0
:1059300063EFC6029306B00663E0C6049D4663EDBE
:10594000F602850793F7F70F05A83717004283275C
:105950000710F99B2320F7108280B717004203A796
:10596000C71E1377F70F935747003D8B05EF6385ED
:105970000700FD1793F7F70F92073E971377F70F7E
:10598000B717004223A2E71082801377070471D76C
:10599000B717004203A7C71E1377F70F93574700A7
:1059A0003D8B49D77D171377F70F9D46E3E6F6FC4D
:1059B000850793F7F70FC9B7B706084003A6461047
:1059C00037370020130787F1834747008E07834549
:1059D0005700A205CD8F83451700BA05CD8FB705B7
:1059E000FCFF6D8ED18F09660906D18F23A2F610B8
:1059F00083A7061113F6F78783477700F9179E07E9
:105A0000D18F23A8F610372600420C46B70708802E
:105A10009387F787FD8D83462700850683473700E8
:105A20009E07034707006E07D98F13973601D98F5A
:105A3000DE06D58FCD8F1CC68280B7070840FC4795
:105A4000858B81CBB737002083C717F693F7F70F05
:105A500091C38280511106C4712509C9B73700204E
:105A60000547A380E7F6A240310182804D2D65DD18
:105A7000F5B7B7070840FC47858B91E38280511149
:105A800006C4B52511C5B737002005472385E7F4BF
:105A9000B737002083C717F693F7F70F81E7A240C7
:105AA00031018280973000E0E780603A6DD9B737E6
:105AB000002005472380E7F6DDB7B737002083C70E
:105AC00027F691C7B707004005472388E706B707C1
